{
  "address": "0xF58ad8A515D58b0940BAB8809AE319Fc142cAD16",
  "abi": [
    {
      "inputs": [
        {
          "internalType": "address",
          "name": "vrfCoordinatorV2",
          "type": "address"
        },
        {
          "internalType": "uint256",
          "name": "entranceFee",
          "type": "uint256"
        },
        {
          "internalType": "bytes32",
          "name": "gasLane",
          "type": "bytes32"
        },
        {
          "internalType": "uint64",
          "name": "subscriptionId",
          "type": "uint64"
        },
        {
          "internalType": "uint32",
          "name": "callbackGasLimit",
          "type": "uint32"
        },
        {
          "internalType": "uint256",
          "name": "interval",
          "type": "uint256"
        }
      ],
      "stateMutability": "nonpayable",
      "type": "constructor"
    },
    {
      "inputs": [
        {
          "internalType": "address",
          "name": "have",
          "type": "address"
        },
        {
          "internalType": "address",
          "name": "want",
          "type": "address"
        }
      ],
      "name": "OnlyCoordinatorCanFulfill",
      "type": "error"
    },
    {
      "inputs": [],
      "name": "Raffle__NotEnoughEthEntered",
      "type": "error"
    },
    {
      "inputs": [],
      "name": "Raffle__RaffleClosed",
      "type": "error"
    },
    {
      "inputs": [],
      "name": "Raffle__TransferFailed",
      "type": "error"
    },
    {
      "inputs": [
        {
          "internalType": "uint256",
          "name": "currentBalance",
          "type": "uint256"
        },
        {
          "internalType": "uint256",
          "name": "numPlayers",
          "type": "uint256"
        },
        {
          "internalType": "uint256",
          "name": "raffleState",
          "type": "uint256"
        }
      ],
      "name": "Raffle__UpkeepNotNedded",
      "type": "error"
    },
    {
      "anonymous": false,
      "inputs": [
        {
          "indexed": true,
          "internalType": "address",
          "name": "player",
          "type": "address"
        }
      ],
      "name": "RaffleEnter",
      "type": "event"
    },
    {
      "anonymous": false,
      "inputs": [
        {
          "indexed": true,
          "internalType": "address",
          "name": "winner",
          "type": "address"
        }
      ],
      "name": "RaffleWinner",
      "type": "event"
    },
    {
      "anonymous": false,
      "inputs": [
        {
          "indexed": true,
          "internalType": "uint256",
          "name": "requestId",
          "type": "uint256"
        }
      ],
      "name": "RequestedRaffleWinner",
      "type": "event"
    },
    {
      "inputs": [
        {
          "internalType": "bytes",
          "name": "",
          "type": "bytes"
        }
      ],
      "name": "checkUpkeep",
      "outputs": [
        {
          "internalType": "bool",
          "name": "upkeepNeeded",
          "type": "bool"
        },
        {
          "internalType": "bytes",
          "name": "",
          "type": "bytes"
        }
      ],
      "stateMutability": "view",
      "type": "function"
    },
    {
      "inputs": [],
      "name": "enterRaffle",
      "outputs": [],
      "stateMutability": "payable",
      "type": "function"
    },
    {
      "inputs": [],
      "name": "getEntranceFee",
      "outputs": [
        {
          "internalType": "uint256",
          "name": "",
          "type": "uint256"
        }
      ],
      "stateMutability": "view",
      "type": "function"
    },
    {
      "inputs": [],
      "name": "getInterval",
      "outputs": [
        {
          "internalType": "uint256",
          "name": "",
          "type": "uint256"
        }
      ],
      "stateMutability": "view",
      "type": "function"
    },
    {
      "inputs": [],
      "name": "getLatestTimeStamp",
      "outputs": [
        {
          "internalType": "uint256",
          "name": "",
          "type": "uint256"
        }
      ],
      "stateMutability": "view",
      "type": "function"
    },
    {
      "inputs": [],
      "name": "getNumWords",
      "outputs": [
        {
          "internalType": "uint256",
          "name": "",
          "type": "uint256"
        }
      ],
      "stateMutability": "pure",
      "type": "function"
    },
    {
      "inputs": [],
      "name": "getNumberOfPlayers",
      "outputs": [
        {
          "internalType": "uint256",
          "name": "",
          "type": "uint256"
        }
      ],
      "stateMutability": "view",
      "type": "function"
    },
    {
      "inputs": [
        {
          "internalType": "uint256",
          "name": "index",
          "type": "uint256"
        }
      ],
      "name": "getPlayers",
      "outputs": [
        {
          "internalType": "address",
          "name": "",
          "type": "address"
        }
      ],
      "stateMutability": "view",
      "type": "function"
    },
    {
      "inputs": [],
      "name": "getRaffleState",
      "outputs": [
        {
          "internalType": "enum Raffle.RaffleState",
          "name": "",
          "type": "uint8"
        }
      ],
      "stateMutability": "view",
      "type": "function"
    },
    {
      "inputs": [],
      "name": "getRecentWinner",
      "outputs": [
        {
          "internalType": "address",
          "name": "",
          "type": "address"
        }
      ],
      "stateMutability": "view",
      "type": "function"
    },
    {
      "inputs": [],
      "name": "getRequestConfirmations",
      "outputs": [
        {
          "internalType": "uint256",
          "name": "",
          "type": "uint256"
        }
      ],
      "stateMutability": "pure",
      "type": "function"
    },
    {
      "inputs": [
        {
          "internalType": "bytes",
          "name": "",
          "type": "bytes"
        }
      ],
      "name": "performUpkeep",
      "outputs": [],
      "stateMutability": "nonpayable",
      "type": "function"
    },
    {
      "inputs": [
        {
          "internalType": "uint256",
          "name": "requestId",
          "type": "uint256"
        },
        {
          "internalType": "uint256[]",
          "name": "randomWords",
          "type": "uint256[]"
        }
      ],
      "name": "rawFulfillRandomWords",
      "outputs": [],
      "stateMutability": "nonpayable",
      "type": "function"
    }
  ],
  "transactionHash": "0x731828a338f43a0b4cf6ea066e9d878782b32afae58f84ef2d4b8d1a3ca84f54",
  "args": [
    "0x2Ca8E0C643bDe4C2E08ab1fA0da3401AdAD7734D",
    "100000000000000000",
    "0x79d3d8832d904592c0bf9818b621522c988bb8b0c05cdc3b15aea1b6e8db0c15",
    "8826",
    "500000",
    "30"
  ],
  "numDeployments": 4,
  "solcInputHash": "8eec88d1513ac516950a546ef39f8ca8",
  "bytecode": "0x6101606040523480156200001257600080fd5b506040516200180338038062001803833981810160405281019062000038919062000294565b858073ffffffffffffffffffffffffffffffffffffffff1660808173ffffffffffffffffffffffffffffffffffffffff1681525050508460a081815250508573ffffffffffffffffffffffffffffffffffffffff1660c08173ffffffffffffffffffffffffffffffffffffffff16815250508360e081815250508267ffffffffffffffff166101008167ffffffffffffffff16815250508163ffffffff166101208163ffffffff16815250506000600260146101000a81548160ff021916908360018111156200010d576200010c62000330565b5b0217905550426001819055508061014081815250505050505050506200035f565b600080fd5b600073ffffffffffffffffffffffffffffffffffffffff82169050919050565b6000620001608262000133565b9050919050565b620001728162000153565b81146200017e57600080fd5b50565b600081519050620001928162000167565b92915050565b6000819050919050565b620001ad8162000198565b8114620001b957600080fd5b50565b600081519050620001cd81620001a2565b92915050565b6000819050919050565b620001e881620001d3565b8114620001f457600080fd5b50565b6000815190506200020881620001dd565b92915050565b600067ffffffffffffffff82169050919050565b6200022d816200020e565b81146200023957600080fd5b50565b6000815190506200024d8162000222565b92915050565b600063ffffffff82169050919050565b6200026e8162000253565b81146200027a57600080fd5b50565b6000815190506200028e8162000263565b92915050565b60008060008060008060c08789031215620002b457620002b36200012e565b5b6000620002c489828a0162000181565b9650506020620002d789828a01620001bc565b9550506040620002ea89828a01620001f7565b9450506060620002fd89828a016200023c565b93505060806200031089828a016200027d565b92505060a06200032389828a01620001bc565b9150509295509295509295565b7f4e487b7100000000000000000000000000000000000000000000000000000000600052602160045260246000fd5b60805160a05160c05160e051610100516101205161014051611434620003cf6000396000818161082f015261089d015260006106a60152600061068301526000610662015260006106260152600081816102fa01526103f7015260008181610337015261038b01526114346000f3fe6080604052600436106100c25760003560e01c8063460e20491161007f5780635f1b0fd8116100595780635f1b0fd8146102375780636e04ff0d1461026257806391ad27b4146102a0578063fd6673f5146102cb576100c2565b8063460e2049146101a4578063473f1ddc146101e157806353a2c19a1461020c576100c2565b806309bc33a7146100c7578063115cbaf5146100f25780631fe543e31461011d5780632cfcc53914610146578063320229eb146101505780634585e33b1461017b575b600080fd5b3480156100d357600080fd5b506100dc6102f6565b6040516100e99190610bbe565b60405180910390f35b3480156100fe57600080fd5b5061010761031e565b6040516101149190610c50565b60405180910390f35b34801561012957600080fd5b50610144600480360381019061013f9190610e04565b610335565b005b61014e6103f5565b005b34801561015c57600080fd5b50610165610564565b6040516101729190610bbe565b60405180910390f35b34801561018757600080fd5b506101a2600480360381019061019d9190610ebb565b61056e565b005b3480156101b057600080fd5b506101cb60048036038101906101c69190610f08565b61075f565b6040516101d89190610f76565b60405180910390f35b3480156101ed57600080fd5b506101f66107a6565b6040516102039190610f76565b60405180910390f35b34801561021857600080fd5b506102216107d0565b60405161022e9190610bbe565b60405180910390f35b34801561024357600080fd5b5061024c6107df565b6040516102599190610bbe565b60405180910390f35b34801561026e57600080fd5b5061028960048036038101906102849190611046565b6107ec565b604051610297929190611129565b60405180910390f35b3480156102ac57600080fd5b506102b5610899565b6040516102c29190610bbe565b60405180910390f35b3480156102d757600080fd5b506102e06108c1565b6040516102ed9190610bbe565b60405180910390f35b60007f0000000000000000000000000000000000000000000000000000000000000000905090565b6000600260149054906101000a900460ff16905090565b7f000000000000000000000000000000000000000000000000000000000000000073ffffffffffffffffffffffffffffffffffffffff163373ffffffffffffffffffffffffffffffffffffffff16146103e757337f00000000000000000000000000000000000000000000000000000000000000006040517f1cf993f40000000000000000000000000000000000000000000000000000000081526004016103de929190611159565b60405180910390fd5b6103f182826108cd565b5050565b7f000000000000000000000000000000000000000000000000000000000000000034101561044f576040517f066d781f00000000000000000000000000000000000000000000000000000000815260040160405180910390fd5b6000600181111561046357610462610bd9565b5b600260149054906101000a900460ff16600181111561048557610484610bd9565b5b146104bc576040517f2ea3cbf200000000000000000000000000000000000000000000000000000000815260040160405180910390fd5b6000339080600181540180825580915050600190039060005260206000200160009091909190916101000a81548173ffffffffffffffffffffffffffffffffffffffff021916908373ffffffffffffffffffffffffffffffffffffffff1602179055503373ffffffffffffffffffffffffffffffffffffffff167f0805e1d667bddb8a95f0f09880cf94f403fb596ce79928d9f29b74203ba284d460405160405180910390a2565b6000600154905090565b6000610588604051806020016040528060008152506107ec565b509050806105f75747600080549050600260149054906101000a900460ff1660018111156105b9576105b8610bd9565b5b6040517f2bd702c00000000000000000000000000000000000000000000000000000000081526004016105ee93929190611182565b60405180910390fd5b6001600260146101000a81548160ff0219169083600181111561061d5761061c610bd9565b5b021790555060007f000000000000000000000000000000000000000000000000000000000000000073ffffffffffffffffffffffffffffffffffffffff16635d3b1d307f00000000000000000000000000000000000000000000000000000000000000007f000000000000000000000000000000000000000000000000000000000000000060037f000000000000000000000000000000000000000000000000000000000000000060016040518663ffffffff1660e01b81526004016106e7959493929190611231565b6020604051808303816000875af1158015610706573d6000803e3d6000fd5b505050506040513d601f19601f8201168201806040525081019061072a9190611299565b9050807fcd6e45c8998311cab7e9d4385596cac867e20a0587194b954fa3a731c93ce78b60405160405180910390a250505050565b6000808281548110610774576107736112c6565b5b9060005260206000200160009054906101000a900473ffffffffffffffffffffffffffffffffffffffff169050919050565b6000600260009054906101000a900473ffffffffffffffffffffffffffffffffffffffff16905090565b6000600163ffffffff16905090565b6000600361ffff16905090565b600060606000600260149054906101000a900460ff16600181111561081457610813610bd9565b5b6000600181111561082857610827610bd9565b5b14905060007f00000000000000000000000000000000000000000000000000000000000000006001544261085c9190611324565b1190506000806000805490501190506000804711905083801561087c5750825b80156108855750815b801561088e5750805b955050505050915091565b60007f0000000000000000000000000000000000000000000000000000000000000000905090565b60008080549050905090565b60008080549050826000815181106108e8576108e76112c6565b5b60200260200101516108fa9190611387565b90506000808281548110610911576109106112c6565b5b9060005260206000200160009054906101000a900473ffffffffffffffffffffffffffffffffffffffff16905080600260006101000a81548173ffffffffffffffffffffffffffffffffffffffff021916908373ffffffffffffffffffffffffffffffffffffffff1602179055506000600260146101000a81548160ff021916908360018111156109a5576109a4610bd9565b5b0217905550600067ffffffffffffffff8111156109c5576109c4610cc1565b5b6040519080825280602002602001820160405280156109f35781602001602082028036833780820191505090505b5060009080519060200190610a09929190610afe565b504260018190555060008173ffffffffffffffffffffffffffffffffffffffff1647604051610a37906113e9565b60006040518083038185875af1925050503d8060008114610a74576040519150601f19603f3d011682016040523d82523d6000602084013e610a79565b606091505b5050905080610ab4576040517fa1d04b3900000000000000000000000000000000000000000000000000000000815260040160405180910390fd5b8173ffffffffffffffffffffffffffffffffffffffff167f16d6ae18ca26331fba5a8b53b0749a009d33b172b68a49d64a767782f5b6010360405160405180910390a25050505050565b828054828255906000526020600020908101928215610b77579160200282015b82811115610b765782518260006101000a81548173ffffffffffffffffffffffffffffffffffffffff021916908373ffffffffffffffffffffffffffffffffffffffff16021790555091602001919060010190610b1e565b5b509050610b849190610b88565b5090565b5b80821115610ba1576000816000905550600101610b89565b5090565b6000819050919050565b610bb881610ba5565b82525050565b6000602082019050610bd36000830184610baf565b92915050565b7f4e487b7100000000000000000000000000000000000000000000000000000000600052602160045260246000fd5b60028110610c1957610c18610bd9565b5b50565b6000819050610c2a82610c08565b919050565b6000610c3a82610c1c565b9050919050565b610c4a81610c2f565b82525050565b6000602082019050610c656000830184610c41565b92915050565b6000604051905090565b600080fd5b600080fd5b610c8881610ba5565b8114610c9357600080fd5b50565b600081359050610ca581610c7f565b92915050565b600080fd5b6000601f19601f8301169050919050565b7f4e487b7100000000000000000000000000000000000000000000000000000000600052604160045260246000fd5b610cf982610cb0565b810181811067ffffffffffffffff82111715610d1857610d17610cc1565b5b80604052505050565b6000610d2b610c6b565b9050610d378282610cf0565b919050565b600067ffffffffffffffff821115610d5757610d56610cc1565b5b602082029050602081019050919050565b600080fd5b6000610d80610d7b84610d3c565b610d21565b90508083825260208201905060208402830185811115610da357610da2610d68565b5b835b81811015610dcc5780610db88882610c96565b845260208401935050602081019050610da5565b5050509392505050565b600082601f830112610deb57610dea610cab565b5b8135610dfb848260208601610d6d565b91505092915050565b60008060408385031215610e1b57610e1a610c75565b5b6000610e2985828601610c96565b925050602083013567ffffffffffffffff811115610e4a57610e49610c7a565b5b610e5685828601610dd6565b9150509250929050565b600080fd5b60008083601f840112610e7b57610e7a610cab565b5b8235905067ffffffffffffffff811115610e9857610e97610e60565b5b602083019150836001820283011115610eb457610eb3610d68565b5b9250929050565b60008060208385031215610ed257610ed1610c75565b5b600083013567ffffffffffffffff811115610ef057610eef610c7a565b5b610efc85828601610e65565b92509250509250929050565b600060208284031215610f1e57610f1d610c75565b5b6000610f2c84828501610c96565b91505092915050565b600073ffffffffffffffffffffffffffffffffffffffff82169050919050565b6000610f6082610f35565b9050919050565b610f7081610f55565b82525050565b6000602082019050610f8b6000830184610f67565b92915050565b600080fd5b600067ffffffffffffffff821115610fb157610fb0610cc1565b5b610fba82610cb0565b9050602081019050919050565b82818337600083830152505050565b6000610fe9610fe484610f96565b610d21565b90508281526020810184848401111561100557611004610f91565b5b611010848285610fc7565b509392505050565b600082601f83011261102d5761102c610cab565b5b813561103d848260208601610fd6565b91505092915050565b60006020828403121561105c5761105b610c75565b5b600082013567ffffffffffffffff81111561107a57611079610c7a565b5b61108684828501611018565b91505092915050565b60008115159050919050565b6110a48161108f565b82525050565b600081519050919050565b600082825260208201905092915050565b60005b838110156110e45780820151818401526020810190506110c9565b60008484015250505050565b60006110fb826110aa565b61110581856110b5565b93506111158185602086016110c6565b61111e81610cb0565b840191505092915050565b600060408201905061113e600083018561109b565b818103602083015261115081846110f0565b90509392505050565b600060408201905061116e6000830185610f67565b61117b6020830184610f67565b9392505050565b60006060820190506111976000830186610baf565b6111a46020830185610baf565b6111b16040830184610baf565b949350505050565b6000819050919050565b6111cc816111b9565b82525050565b600067ffffffffffffffff82169050919050565b6111ef816111d2565b82525050565b600061ffff82169050919050565b61120c816111f5565b82525050565b600063ffffffff82169050919050565b61122b81611212565b82525050565b600060a08201905061124660008301886111c3565b61125360208301876111e6565b6112606040830186611203565b61126d6060830185611222565b61127a6080830184611222565b9695505050505050565b60008151905061129381610c7f565b92915050565b6000602082840312156112af576112ae610c75565b5b60006112bd84828501611284565b91505092915050565b7f4e487b7100000000000000000000000000000000000000000000000000000000600052603260045260246000fd5b7f4e487b7100000000000000000000000000000000000000000000000000000000600052601160045260246000fd5b600061132f82610ba5565b915061133a83610ba5565b9250828203905081811115611352576113516112f5565b5b92915050565b7f4e487b7100000000000000000000000000000000000000000000000000000000600052601260045260246000fd5b600061139282610ba5565b915061139d83610ba5565b9250826113ad576113ac611358565b5b828206905092915050565b600081905092915050565b50565b60006113d36000836113b8565b91506113de826113c3565b600082019050919050565b60006113f4826113c6565b915081905091905056fea2646970667358221220b785dbb302b0b39cff4caf5e219904a96a008836c0353a041c640e494eecc5b064736f6c63430008110033",
  "devdoc": {
    "author": "Francisco Baqueriza",
    "details": "this implements chainlink VRF v2 and Chainlink keepers",
    "kind": "dev",
    "methods": {
      "checkUpkeep(bytes)": {
        "details": "This is the keeper that the chainlink keeper nodes call they look for 'upkeeoNeeded' to return true 1 our time interval should have passed 2 our lottery must have 1 player and some eth in it 3 our subscription is funded with link 4 lottery should be in an \"open\" state"
      }
    },
    "title": "A sample raffle contract",
    "version": 1
  },
  "userdoc": {
    "kind": "user",
    "methods": {},
    "notice": "this contract is for creating an untamperable decentralized smart contract",
    "version": 1
  },
  "storageLayout": {
    "storage": [
      {
        "astId": 197,
        "contract": "contracts/Raffle.sol:Raffle",
        "label": "s_players",
        "offset": 0,
        "slot": "0",
        "type": "t_array(t_address_payable)dyn_storage"
      },
      {
        "astId": 214,
        "contract": "contracts/Raffle.sol:Raffle",
        "label": "s_lastTimeStamp",
        "offset": 0,
        "slot": "1",
        "type": "t_uint256"
      },
      {
        "astId": 218,
        "contract": "contracts/Raffle.sol:Raffle",
        "label": "s_recentWinner",
        "offset": 0,
        "slot": "2",
        "type": "t_address"
      },
      {
        "astId": 221,
        "contract": "contracts/Raffle.sol:Raffle",
        "label": "s_raffleState",
        "offset": 20,
        "slot": "2",
        "type": "t_enum(RaffleState)192"
      }
    ],
    "types": {
      "t_address": {
        "encoding": "inplace",
        "label": "address",
        "numberOfBytes": "20"
      },
      "t_address_payable": {
        "encoding": "inplace",
        "label": "address payable",
        "numberOfBytes": "20"
      },
      "t_array(t_address_payable)dyn_storage": {
        "base": "t_address_payable",
        "encoding": "dynamic_array",
        "label": "address payable[]",
        "numberOfBytes": "32"
      },
      "t_enum(RaffleState)192": {
        "encoding": "inplace",
        "label": "enum Raffle.RaffleState",
        "numberOfBytes": "1"
      },
      "t_uint256": {
        "encoding": "inplace",
        "label": "uint256",
        "numberOfBytes": "32"
      }
    }
  }
}